S015000046696E616C2050726F6A6563742E737265632E
S113000033C000004CC000004AC0000048C00000DB
S113001046C0000044C0000042C0000040C00000D0
S11300203EC000003CC000003AC0000038C00000E0
S113003036C0000034C0000032C0000030C00000F0
S11300402EC000002CC000002AC0000028C0000000
S113005026C0000024C0000022C0000020C0000010
S11300601EC000001CC0000011241FBECFEFD8E04A
S1130070DEBFCDBF11E0A0E0B1E0E4E8F2E002C0F1
S113008005900D92AA33B107D9F721E0AAE3B1E0B4
S113009001C01D92A134B207E1F7D3D0F1C0B0CFB3
S11300A007E004B900E005B901B910E007E61093D0
S11300B0C5000093C40008E10093C10006E000936A
S11300C0C2000EEF00937E000FEF00937F000895AF
S11300D001E01F9B00933E01089531D00FEF0AB950
S11300E000913B010BB904E005B904D000E005B967
S11300F001D01FC00AEF1FEF1A95F1F70A95D9F73F
S113010008951DD00FEF0AB900913B010BB906E029
S113011005B9F0DF00E005B9EDDF0BC008950FD09D
S113012000E00AB945B80BB100933B0105B801C022
S1130130089502E00AB908E10093C100089500E0BF
S11301400093C10008950091C00007FF0895009135
S1130150C600F9CF0091C00007FFFCCF0091C60094
S113016000933E0108951091C00015FFFCCF00914B
S11301703E010093C6000895CF93DF93EC0198816C
S1130180992339F0219690933B01BBDF999191110A
S1130190FACFDF91CF910895CF93DF9384E38093D7
S11301A03B019BDF88E080933B0197DFC2E0C09373
S11301B03B0193DF86E080933B018FDF8FE08093E8
S11301C03B018BDF80E091E0D7DF10923E01C8B99C
S11301D080913E01811130C0C8E1D2E0109240010B
S11301E010923F0175DFC0933B0177DF2FEF83EC63
S11301F099E0215080409040E1F700C0000068DFA2
S113020080913E01882331F081E088B980933B01DD
S113021064DF14C080913F01909140010196909356
S1130220400180933F018897E8F2D0933B0155DF6A
S113023080913E01882391F281E088B9DF91CF91CA
S113024008952EDF83E087B9A7DF1F9BFECF80E0F0
S113025090E042E031E020E071E060E050E01F997E
S1130260FECF8130910521F478B9862F952F05C0F2
S1130270009719F448B9832F922F1F9BFECFEFCF1D
S1070280F894FFCF1C
S1130284496620746865726520617265203620664B
S113029469736820616E6420332064726F776E2CF6
S11302A420686F77206D616E7920666973682061B8
S10D02B472652074686572653F00EE
S9030000FC
