S015000046696E616C2050726F6A6563742E737265632E
S113000033C000004CC000004AC0000048C00000DB
S113001046C0000044C0000042C0000040C00000D0
S11300203EC000003CC000003AC0000038C00000E0
S113003036C0000034C0000032C0000030C00000F0
S11300402EC000002CC000002AC0000028C0000000
S113005026C0000024C0000022C0000020C0000010
S11300601EC000001CC0000011241FBECFEFD8E04A
S1130070DEBFCDBF12E0A0E0B1E0E4ECF2E002C0EC
S113008005900D92AC34B107D9F722E0ACE4B2E0AC
S113009001C01D92A335B207E1F70ED111C1B0CF53
S11300A007E004B900E005B901B910E007E61093D0
S11300B0C5000093C40008E10093C10006E000936A
S11300C0C2000EEF00937E000FEF00937F000895AF
S11300D031D00FEF0AB900914D020BB904E005B914
S11300E004D000E005B901D01FC00AEF1FEF1A9534
S11300F0F1F70A95D9F708951DD00FEF0AB90091C9
S11301004D020BB906E005B9F0DF00E005B9EDDFFB
S11301100BC008950FD000E00AB945B80BB10093A5
S11301204D0205B801C0089502E00AB908E1009340
S1130130C100089500E00093C10008950091C0003B
S113014007FF08950091C600F9CF0091C00007FF92
S1130150FCCF0091C6000093500208951091C00096
S113016015FFFCCF009150020093C6000895CF9371
S1130170DF93EC019881992339F0219690935002F2
S1130180EDDF99919111FACFDF91CF910895CF933B
S1130190DF93EC019881992339F0219690934D02D5
S11301A0ABDF99919111FACFDF91CF9108958FE24E
S11301B092E0DDDF88EF91E0DADF84EC91E0D7CFE5
S11301C00895CF93DF9384E380934D0281DF88E029
S11301D080934D027DDF82E080934D0279DF86E0DB
S11301E080934D0275DF8FE080934D0271DF8DE7C0
S11301F091E0CDDF10925002C8E1D2E01092520299
S113020010925102C0934D0263DF2FEF83EC99E00B
S1130210215080409040E1F700C000000091C600EA
S11302200093500280915002882329F081E080934A
S11302304D024EDF12C080915102909152020196FC
S113024090935202809351028897E0F2D0934D022A
S11302503FDF80915002882389F2DF91CF91089586
S113026080E091E084DF89E291E081DF6EDF8091BC
S113027050028B3119F08EE691E079CF08958EEC1F
S113028091E075DF1092500260DF80915002882364
S1130290D9F3853559F018F48C3431F009C08C3613
S11302A019F0853719F004C08CCF0895D9CF08957B
S11302B085EA91E05CCF0895F3DE79DFE0DFFECFDD
S10702C0F894FFCFDC
S11302C40D0A53656C656374207768617420796FD3
S11302D47520776F756C64206C696B6520746F206E
S11302E46368616E67650D0A000D0A28312942614D
S11302F475642052617465202832294368617261EF
S1130304637465722053697A6520283329506172B5
S11303146974792028342953746F70206269747362
S1130324202845534329204D656E750D0A00496EF6
S113033476616C6964204F7074696F6E00202020AC
S1130344202020202020202020202020466F757289
S113035420697320426574746572205468616E2048
S113036446697665000D0A496E76616C69642043BA
S11303746F6D6D616E642054727920416761696E9A
S11303842E2E2E000D0A52656164793A20000D0A5E
S11303944D656E753A20284C2943442C2028412964
S11303A444432C202845294550524F4D2C20285590
S11303B429534152540D0A000D0A62792045756788
S11303C4656E6520526F636B657920436F70797233
S11303D46967687420323031382C20416C6C2052A7
S11303E46967687473205265736572766564000D79
S11303F40A4543452D3431322041544D65676133F8
S10F04043238502054696E79204F5300A8
S9030000FC
