:1000000033C000004CC000004AC0000048C00000DF
:1000100046C0000044C0000042C0000040C00000D4
:100020003EC000003CC000003AC0000038C00000E4
:1000300036C0000034C0000032C0000030C00000F4
:100040002EC000002CC000002AC0000028C0000004
:1000500026C0000024C0000022C0000020C0000014
:100060001EC000001CC0000011241FBECFEFD8E04E
:10007000DEBFCDBF11E0A0E0B1E0E4E3F2E002C0FA
:1000800005900D92AC3AB107D9F721E0ACEAB1E0A6
:1000900001C01D92A73BB207E1F7C6D0C9C0B0CFDF
:1000A00007E004B900E005B901B910E007E61093D4
:1000B000C5000093C40008E10093C10006E000936E
:1000C000C20007E800937A0000E400937C0000E09F
:1000D00000937B000EEF00937E000FEF00937F00F4
:1000E000089531D00FEF0AB90091AC010BB904E0CB
:1000F00005B904D000E005B901D01FC00AEF1FEF19
:100100001A95F1F70A95D9F708951DD00FEF0AB99E
:100110000091AC010BB906E005B9F0DF00E005B9CC
:10012000EDDF0BC008950FD000E00AB945B80BB160
:100130000093AC0105B801C0089502E00AB908E1D6
:100140000093C100089500E00093C100089500915C
:10015000C00007FF08950091C600F9CF0091C000CC
:1001600007FFFCCF0091C6000093AE0108951091E7
:10017000C00015FFFCCF0091AE010093C6000895AA
:10018000CF93DF93EC019881992339F021969093D6
:10019000AE01EDDF99919111FACFDF91CF910895E2
:1001A000CF93DF93EC019881992339F021969093B6
:1001B000AC01ABDF99919111FACFDF91CF91089506
:1001C0008FE891E0DDDF88E591E0DADF8DE291E014
:1001D000D7CF089584E38093AC0183DF88E08093D8
:1001E000AC017FDF82E08093AC017BDF86E080930F
:1001F000AC0177DF8FE08093AC0173DF80E091E0AA
:10020000CFCF089587E391E0BBDF1092AE01A6DF68
:100210008091AE018823D9F38C3611F4DBCF089599
:100220008EE091E0ADCF08953BDFCADFEBDFFECF7C
:04023000F894FFCF70
:1002340048656C6C6F2045434534313221000D0A0A
:10024400496E76616C696420436F6D6D616E6420E4
:1002540054727920416761696E2E2E2E000D0A5268
:10026400656164793A20000D0A4D656E753A20285F
:100274004C2943442C2028412943442C2028452937
:100284004550524F4D0D0A000D0A6279204575679D
:10029400656E6520526F636B657920436F70797268
:1002A4006967687420323031382C20416C6C2052DC
:1002B4006967687473205265736572766564000DAE
:1002C4000A4543452D3431322041544D656761332D
:0C02D4003238502054696E79204F5300DE
:00000001FF
