:020000020000FC
:080000000C9400010C943D0179
:100200000E940A010E9411010E9414010E94310102
:100210000C9408010090000000920001009201017E
:100220000895EDE0F3E00895E03011F40C94160128
:10023000F03039F4EEEEE0930001E09301010C940C
:100240001F01EF1729F4E1E0E09300010C9426016F
:100250003AF4EFEFE0930001E09301010C942E01DA
:100260000895009000000394EF1BEAF70A94EF0F43
:0E02700000920001E093010108950C943D01FD
:00000001FF
