:10000000E1C00000FAC00000F8C00000F6C0000027
:10001000F4C00000F2C00000F0C00000EEC000001C
:10002000ECC00000EAC00000E8C00000E6C000002C
:10003000E4C00000E2C00000E0C00000DEC000003C
:10004000DCC00000DAC00000D8C00000D6C000004C
:10005000D4C00000D2C00000D0C00000CEC000005C
:10006000CCC00000CAC00000480340034003400366
:100070004003400340034003400340034003400368
:100080004003400340034003400340034003400358
:100090004003400340034003400340034003400348
:1000A0004003400340034003400340034003400338
:1000B000400340031C03220328032E0334033A03A6
:1000C0004003400340034003400340034003400318
:1000D0004003400340034003400340034003400308
:1000E00040034003400340034003400340034003F8
:1000F000400340031C03220328032E0334033A0366
:1001000039043F043F043F043B043F043F043F04E1
:100110003F043F043F0437043F043F043F043F04CF
:100120003F043F043F043F043D043F043F043F04B9
:100130003F043F043F043F043F043F043F043F04A7
:1001400039043F043F043F043B043F043F043F04A1
:100150003F043F043F0437043F043F043F043F048F
:100160003F043F043F043F043D0408000000BE92EA
:100170002449123EABAAAA2ABECDCCCC4C3E0000EC
:100180000080BEABAAAAAA3E00000000BF0000008B
:10019000803F0000000000084178D3BB4387D113A3
:1001A0003D190E3CC3BD4282AD2B3E68EC8276BE4B
:1001B000D98FE1A93E4C80EFFFBE01C4FF7F3F0015
:1001C0000000000011241FBECFEFD8E0DEBFCDBF7E
:1001D00016E0A0E0B1E0E4EDFDE002C005900D9274
:1001E000A630B107D9F726E0A6E0B6E001C01D921F
:1001F000A232B207E1F748D3EBC502CF07E004B95A
:1002000000E005B901B910E007E61093C5000093BE
:10021000C40008E10093C10006E00093C20007E8B3
:1002200000937A0000E400937C0000E000937B00E0
:100230000EEF00937E000FEF00937F00089531D002
:100240000FEF0AB900910B060BB904E005B904D011
:1002500000E005B901D01FC00AEF1FEF1A95F1F7B2
:100260000A95D9F708951DD00FEF0AB900910B0632
:100270000BB906E005B9F0DF00E005B9EDDF0BC012
:1002800008950FD000E00AB945B80BB100930B06F2
:1002900005B801C0089502E00AB908E10093C10061
:1002A000089500E00093C10008950091C00007FF89
:1002B00008950091C600F9CF0091C00007FFFCCF60
:1002C0000091C60000930F0608951091C00015FF1D
:1002D000FCCF00910F060093C600089507EC009331
:1002E0007A0000917A0006FDFCCF0091780000931F
:1002F0001D060091790000930C060895F999FECF30
:1003000020910E0610910D0600910A0622BD11BD26
:1003100000BDFA9AF99A0895F999FECF20910E0638
:1003200010910D0600910A0622BD11BDF89A00B584
:1003300000930F060895CF93DF93EC0198819923E2
:1003400039F0219690930F06C0DF99919111FACF61
:10035000DF91CF910895CF93DF93EC01988199239A
:1003600039F0219690930B067EDF99919111FACF87
:10037000DF91CF91089588EE95E0DDDF81EB95E088
:10038000DADF8DE795E0D7CF089587E895E0D3CF02
:100390000895CF93DF9384E380930B0650DF88E0CA
:1003A00080930B064CDF82E080930B0648DF86E0EB
:1003B00080930B0644DF8FE080930B0640DF83E3DE
:1003C00095E0C9DF10920F06C8E1D2E010921F0637
:1003D00010921E06C0930B0632DF2FEF83EC99E0DC
:1003E000215080409040E1F700C000000091C6001D
:1003F00000930F0680910F06882329F081E08093F7
:100400000B061DDF12C080911E0690911F060196FB
:1004100090931F0680931E068897E0F2D0930B06F8
:100420000EDF80910F06882389F2DF91CF91089526
:100430008F929F92AF92BF92CF92DF92EF92FF92F4
:1004400010920F064BDF60910C06062E000C770B06
:10045000762F662780911D06680F711D87FD7A959E
:100460007093210660932006072E000C880B990BD1
:100470000FD36B017C0120E030E44CE156E4D9D38A
:100480004B015C01A701960160E070E080E894E414
:10049000FFD19B01AC01C501B4015FD2609314068A
:1004A00070931506809316069093170620E030E4AB
:1004B0004CE156E452D27DD323E333E145E953E4E2
:1004C000B8D320E030EE46E755E4E3D19B01AC0120
:1004D0006EEC7EEE83E899E440D223E333E948E80A
:1004E00053E4D6D120E030E040E151E4A2D320E053
:1004F00030E040EA50E431D220E030E040E052E425
:10050000C8D16093060670930706809308069093FF
:1005100009068BD2DC01CB014AE060E176E025D40C
:1005200083E492E008DF80E196E005DF8BE595E06B
:1005300002DF2FEF81EE94E0215080409040E1F700
:1005400000C0000080E091E0F6DE85E091E0F3DE9F
:100550000091C60000930F0680910F068B3109F0C1
:1005600071CFFF90EF90DF90CF90BF90AF909F90B2
:100570008F9008958CE091E0DEDE9EDE80910F0684
:1005800080930D0688E391E0D6DE96DE80910F061B
:1005900080930E06089583E691E0CDDE8DDE909186
:1005A0000F06892F8F7D8235E9F488E991E0C3DE5B
:1005B000E1DF8DEB91E0BFDE80910D0680930F06A9
:1005C00084DE8DEC91E0B7DE80910E0680930F06FD
:1005D0007CDE8FEC91E0AFDE9FDE77DE83E492E09D
:1005E000AACE0895873571F482ED91E0A4DEC2DFD2
:1005F00086EF91E0A0DE60DE80910F0680930A0610
:100600007DCE08959B3121F487E392E094CE089546
:100610008EE595E090CE089586E492E08CDE4CDE87
:10062000E0910F068E2F90E0FC017B97EC34F105F2
:1006300038F5EC5CFF4F93C38FEA92E07CDE10E06C
:1006400007E622C08CEC92E076DE10E00FEC1CC0D6
:1006500089EE92E070DE11E00FE916C086E093E0CB
:100660006ADE13E00FE310C083E293E064DE16E07D
:100670000FE70AC08FE393E05EDE1CE00FEF04C0DB
:100680008BE593E058DEC8CF1093C5000093C400FB
:1006900008958EE693E04FDE0FDE80910F068633DD
:1006A00009F130F48B3109F465C0853349F0F1CF9D
:1006B000883309F43CC040F1893309F44AC0E9CFDA
:1006C0008FEC93E038DEE1ECF0E0808191818B7F6C
:1006D00091838083E2ECF0E0808191818B7F918334
:1006E000808308958AED93E026DEE1ECF0E08081DE
:1006F00091818B7F91838083E2ECF0E08081918116
:10070000846091838083089585EE93E014DEE1ECAC
:10071000F0E0808191818B7F91838083E2ECF0E037
:10072000808191818D7F846091838083089580EFA3
:1007300093E001DEE1ECF0E0808191818B7F918399
:100740008083E2ECF0E080819181866091838083F8
:1007500008958BEF93E0EFDDE1ECF0E08081918193
:10076000846091838083E2ECF0E0808191818660F7
:1007700091838083089586E094E0DDDD9DDD8091A6
:100780000F068F34F9F038F4843459F0853489F049
:100790008B3121F11FC0853661F08F3699F0843698
:1007A000C9F4E2ECF0E0808191818F7C91838083B9
:1007B0000895E2ECF0E0808191818F7E80629183E8
:1007C00080830895E2ECF0E08081918180639183E1
:1007D000808308958BE593E0AEDDCDCF089585E667
:1007E00094E0A9DD69DD80910F068B3141F018F0AE
:1007F0008153823020F08BE593E09DDDF0CF0895AA
:1008000086EB94E098DD8FED94E095DD55DD8091E9
:100810000F06823369F028F48B3199F0813331F07F
:100820000DC0833339F0843339F008C0F5CE089514
:1008300030CF0895A0CF0895D2CF089584E295E0F7
:100840007ACD089587E895E076DD10920F0634DDC5
:10085000E0910F06EE23D9F38E2F90E0FC01E154D6
:10086000F109E533F10558F4E058FF4F78C291CD16
:100870000895DECD08958FCE0895C2CF08958EE5F8
:1008800095E059DD82CD0895B9DC75DDDBDFFECF63
:100890005058BB27AA270ED04DC13ED130F043D1CE
:1008A00020F031F49F3F11F41EF433C10EF4E095B3
:1008B000E7FB29C1E92F4FD180F3BA17620773070D
:1008C0008407950718F071F49EF567C10EF4E09562
:1008D0000B2EBA2FA02D0B01B90190010C01CA01FA
:1008E000A0011124FF27591B99F0593F50F4503EA5
:1008F00068F11A16F040A22F232F342F4427585F97
:10090000F3CF469537952795A795F0405395C9F7AE
:100910007EF41F16BA0B620B730B840BBAF0915066
:10092000A1F0FF0FBB1F661F771F881FC2F70EC005
:10093000BA0F621F731F841F48F4879577956795D8
:10094000B795F7959E3F08F0B3CF9395880F08F0C1
:100950009927EE0F9795879508950CD0EBC0E3D0BB
:1009600040F0DAD030F021F45F3F19F0CCC05111E3
:1009700015C1CFC0F0D098F39923C9F35523B1F333
:10098000951B550BBB27AA2762177307840738F0FE
:100990009F5F5F4F220F331F441FAA1FA9F333D05D
:1009A0000E2E3AF0E0E830D091505040E695001C11
:1009B000CAF729D0FE2F27D0660F771F881FBB1FCD
:1009C000261737074807AB07B0E809F0BB0B802DA7
:1009D000BF01FF2793585F4F2AF09E3F510568F0F3
:1009E00092C0DCC05F3FECF3983EDCF386957795D0
:1009F0006795B795F7959F5FC9F7880F911D9695F5
:100A0000879597F90895E1E0660F771F881FBB1F50
:100A1000621773078407BA0720F0621B730B840BFD
:100A2000BA0BEE1F88F7E095089504D06894B111D1
:100A3000B5C0089598D088F09F5790F0B92F9927A6
:100A4000B751A0F0D1F0660F771F881F991F1AF0D9
:100A5000BA95C9F712C0B13081F09FD0B1E00895C6
:100A60009CC0672F782F8827B85F39F0B93FCCF347
:100A7000869577956795B395D9F73EF490958095CF
:100A8000709561957F4F8F4F9F4F0895E89409C0EF
:100A900097FB3EF490958095709561957F4F8F4FB1
:100AA0009F4F9923A9F0F92F96E9BB279395F695C7
:100AB000879577956795B795F111F8CFFAF4BB0F45
:100AC00011F460FF1BC06F5F7F4F8F4F9F4F16C0A9
:100AD000882311F096E911C0772321F09EE8872F33
:100AE000762F05C0662371F096E8862F70E060E0EF
:100AF0002AF09A95660F771F881FDAF7880F969568
:100B0000879597F9089597F99F6780E870E060E00E
:100B100008959FEF80EC089500240A941616170696
:100B200018060906089500240A94121613061406DE
:100B300005060895092E0394000C11F4882352F041
:100B4000BB0F40F4BF2B11F460FF04C06F5F7F4FF9
:100B50008F4F9F4F089557FD9058440F551F59F0E0
:100B60005F3F71F04795880F97FB991F61F09F3F9A
:100B700079F087950895121613061406551FF2CFC3
:100B80004695F1DF08C0161617061806991FF1CF13
:100B900086957105610508940895E894BB2766273A
:100BA0007727CB0197F908950EF0A6C0B2CF6894CD
:100BB000AACFD9DFC8F39923D1F3C6F3DF93CF933C
:100BC0001F930F93FF92C92FDD2788232AF02197C7
:100BD000660F771F881FDAF720E030E040E85FEB10
:100BE0009FE3883920F0803E30F021968F7751DEE8
:100BF000EAE6F1E003C04DDEE7E9F1E08BD08B01DE
:100C0000BE01EC01FB2E6F5771097595771F880B9C
:100C1000990B3EDF28E132E741E35FE316D0AF2DC9
:100C20009801AE01FF900F911F91CF91DF9142DEAD
:100C300081CF0BD07FCF70DF28F075DF18F09523C0
:100C400009F061CF66CF1124A9CF85DFA0F3959F6E
:100C5000D1F3950F50E0551F629FF001729FBB27A3
:100C6000F00DB11D639FAA27F00DB11DAA1F649F4F
:100C70006627B00DA11D661F829F2227B00DA11D02
:100C8000621F739FB00DA11D621F839FA00D611D88
:100C9000221F749F3327A00D611D231F849F600DA9
:100CA000211D822F762F6A2F11249F5750408AF0E2
:100CB000E1F088234AF0EE0FFF1FBB1F661F771F6E
:100CC000881F91505040A9F79E3F510570F01BCFEF
:100CD00065CF5F3FECF3983EDCF38695779567959B
:100CE000B795F795E7959F5FC1F7FE2B880F911D8C
:100CF0009695879597F908959F3F31F0915020F48C
:100D0000879577956795B795880F911D96958795E7
:100D100097F90895DF93CF931F930F93FF92EF926C
:100D2000DF927B018C01689405C0DA2EEF018DDF24
:100D3000FE01E894A5912591359145915591AEF329
:100D4000EF01B8DDFE019701A801DA9479F7DF9091
:100D5000EF90FF900F911F91CF91DF910895EE0FCB
:100D6000FF1F0590F491E02D0994BB274A3031F420
:100D7000992322F4BDE2909581959F4F01C0BB2736
:100D8000FB015527AA27880F991FAA1FA41710F047
:100D9000A41B83955051B9F7A05DAA3308F0A95D53
:100DA000A193009779F7B111B1931192CB0100C0D3
:100DB000DC01FC01672F71917723E1F7329704C0C2
:100DC0007C916D9370836291AE17BF07C8F308954D
:040DD000F894FFCFC5
:100DD4001B5B324A001B5B303B3048000D0A456EFA
:100DE4007465722074686520686967682D62697427
:100DF400206F662074686520454550524F4D204150
:100E040064647265737320000D0A456E7465722004
:100E1400746865206C6F772D626974206F66207426
:100E2400686520454550524F4D2041646472657396
:100E34007320000D0A576F756C6420796F75206CF0
:100E4400696B6520746F202852296561642C202801
:100E54005729726974652C206F72202845736329A1
:100E6400204D656E750D0A000D0A596F7520736566
:100E74006C656374656420746F20726561642066B8
:100E8400726F6D20454550524F4D0D0A000D0A0DED
:100E94000A436F6E74656E74206174200078003AA2
:100EA40020000D0A596F752073656C656374656461
:100EB40020746F20777269746520746F20454550E3
:100EC400524F4D0D0A000D0A456E74657220746808
:100ED4006520636F6E74656E7420746F2062652084
:100EE40073746F726564206174207468652045456D
:100EF40050524F4D20416464726573732070726F59
:100F0400766964650D0A000D0A5468616E6B207978
:100F14006F752E0D0A000D0A53656C6563742066A7
:100F2400726F6D2074686520666F6C6C6F77696E84
:100F34006720426175642052617465730D0A2861EB
:100F440029203936303020286229203438303020A6
:100F5400286329203234303020286429203132306B
:100F64003020286529203630302028662920333067
:100F740030202845534329204D656E750D0A000D18
:100F84000A4261756420726174652073656C6563DF
:100F94007465643A20393630300D0A000D0A426116
:100FA400756420726174652073656C65637465642F
:100FB4003A20343830300D0A000D0A42617564203D
:100FC400726174652073656C65637465643A20327C
:100FD4003430300D0A000D0A426175642072617468
:100FE400652073656C65637465643A203132303012
:100FF4000D0A000D0A4261756420726174652073E4
:10100400656C65637465643A203630300D0A000DF2
:101014000A4261756420726174652073656C65634E
:101024007465643A203330300D0A000D0A496E7637
:10103400616C6964206F7074696F6E0D0A000D0A2B
:1010440053656C6563742066726F6D2074686520E7
:10105400666F6C6C6F77696E672062697420736960
:101064007A65730D0A28352920626974732028363D
:1010740029206269747320283729206269747320D7
:1010840028382920626974732028392920626974F8
:1010940073202845534329204D656E750D0A000DB4
:1010A4000A3520626974730D0A000D0A36206269DC
:1010B40074730D0A000D0A3720626974730D0A00F7
:1010C4000D0A3820626974730D0A000D0A39206212
:1010D4006974730D0A000D0A53656C656374206F9F
:1010E4006E65206F662074686520666F6C6C6F7720
:1010F400696E6720706172697479206D6F646573BD
:101104000D0A284429697361626C656420284529A5
:1011140076656E2050617269747920284F29646461
:1011240020506172697479202845534329204D6504
:101134006E750D0A000D0A53656C656374206F6E3D
:1011440065206F662074686520666F6C6C6F7769C4
:101154006E67206E756D626572206F662073746FA2
:101164007020626974730D0A283129206269742021
:101174002832292062697473202845534329204D5D
:10118400656E750D0A000D0A53656C6563742077EE
:1011940068617420796F7520776F756C64206C6951
:1011A4006B6520746F206368616E67650D0A000DBE
:1011B4000A283129426175642052617465202832FD
:1011C400294368617261637465722053697A65208A
:1011D4002833295061726974792028342953746F33
:1011E400702062697473202845534329204D656E2D
:1011F400750D0A00496E76616C6964204F707469DC
:101204006F6E00202020202020202020202020205D
:101214002020466F7572206973204265747465726C
:10122400205468616E2046697665002046000D0AE8
:10123400496E76616C696420436F6D6D616E6420E4
:1012440054727920416761696E2E2E2E000D0A5268
:10125400656164793A20000D0A4D656E753A20285F
:101264004C2943442C2028412944432C2028452937
:101274004550524F4D2C20285529534152540D0AA4
:10128400000D0A627920457567656E6520526F63AB
:101294006B657920436F70797269676874203230A6
:1012A40031382C20416C6C20526967687473205269
:1012B40065736572766564000D0A4543452D3431C6
:1012C400322041544D656761333238502054696E81
:0612D40079204F530000D9
:00000001FF
