:1000000095C00000AEC00000ACC00000AAC0000057
:10001000A8C00000A6C00000A4C00000A2C000004C
:10002000A0C000009EC000009CC000009AC000005C
:1000300098C0000096C0000094C0000092C000006C
:1000400090C000008EC000008CC000008AC000007C
:1000500088C0000086C0000084C0000082C000008C
:1000600080C000007EC000007B0381038103810308
:100070007D0381038103810381038103810379036C
:100080008103810381038103810381038103810350
:100090007F03810381038103810381038103810342
:1000A00081038103810381037B0381038103810336
:1000B0007D0381038103810381038103810379032C
:1000C0008103810381038103810381038103810310
:1000D0007F0308000000BE922449123EABAAAA2A60
:1000E000BECDCCCC4C3E00000080BEABAAAAAA3E3E
:1000F00000000000BF000000803F0000000000087A
:100100004178D3BB4387D1133D190E3CC3BD428216
:10011000AD2B3E68EC8276BED98FE1A93E4C80EFD4
:10012000FFBE01C4FF7F3F000000000011241FBE7E
:10013000CFEFD8E0DEBFCDBF15E0A0E0B1E0E8E54D
:10014000FCE002C005900D92AE3EB107D9F726E063
:10015000AEEEB5E001C01D92A830B207E1F7D6D2ED
:1001600079C54ECF07E004B900E005B901B910E048
:1001700007E61093C5000093C40008E10093C10096
:1001800006E00093C20007E800937A0000E40093C1
:100190007C0000E000937B000EEF00937E000FEFE9
:1001A00000937F00089531D00FEF0AB90091F30555
:1001B0000BB904E005B904D000E005B901D01FC0B7
:1001C0000AEF1FEF1A95F1F70A95D9F708951DD098
:1001D0000FEF0AB90091F3050BB906E005B9F0DF9E
:1001E00000E005B9EDDF0BC008950FD000E00AB9BB
:1001F00045B80BB10093F30505B801C0089502E0BE
:100200000AB908E10093C100089500E00093C1001D
:1002100008950091C00007FF08950091C600F9CF2E
:100220000091C00007FFFCCF0091C6000093F705C6
:1002300008951091C00015FFFCCF0091F7050093C1
:10024000C600089507EC00937A0000917A0006FD3D
:10025000FCCF00917800009305060091790000938F
:10026000F4050895F999FECF20E015E006E422BDDB
:1002700011BD00BDFA9AF99A0895F999FECF20E0D0
:1002800015E000E022BD11BDF89A00B50093F70516
:100290000895CF93DF93EC019881992339F021964B
:1002A0009093F705C6DF99919111FACFDF91CF9125
:1002B0000895CF93DF93EC019881992339F021962B
:1002C0009093F30584DF99919111FACFDF91CF914B
:1002D000089580ED95E0DDDF89E995E0DADF85E6D8
:1002E00095E0D7CF08958FE695E0D3CF089584E3C6
:1002F0008093F30558DF88E08093F30554DF82E0B4
:100300008093F30550DF86E08093F3054CDF8FE0A8
:100310008093F30548DF8AE295E0CBCF08958F9272
:100320009F92AF92BF92CF92DF92EF92FF92109284
:10033000F70588DF6091F405062E000C770B762F09
:10034000662780910506680F711D87FD7A95709369
:10035000070660930606072E000C880B990BDAD26D
:100360006B017C0120E030E44CE156E4A4D34B0166
:100370005C01A701960160E070E080E894E4CAD1D6
:100380009B01AC01C501B4012AD26093FC057093B6
:10039000FD058093FE059093FF0520E030E44CE1DD
:1003A00056E41DD248D323E333E145E953E483D334
:1003B00020E030EE46E755E4AED19B01AC016EEC97
:1003C0007EEE83E899E40BD223E333E948E853E473
:1003D000A1D120E030E040E151E46DD320E030E0F5
:1003E00040EA50E4FCD120E030E040E052E493D118
:1003F0006093EE057093EF058093F0059093F105FF
:1004000056D2DC01CB014AE068EF75E0F0D382E11F
:1004100093E03FDF88EF95E03CDF83E495E039DF50
:1004200088E191E036DF8DE191E033DF0091C60095
:100430000093F7058091F705853609F07ACFFF9094
:10044000EF90DF90CF90BF90AF909F908F900895E6
:1004500084E291E01EDFE4DE8091F7058093F505EC
:1004600080E591E016DFDCDE8091F7058093F605EC
:1004700008958AE791E00DDFD3DE8091F7058F7D47
:10048000823531F489EA91E004DFE2DFF6CE0895A7
:10049000873571F48CEC91E0FCDEDADF8EEE91E0D2
:1004A000F8DEBEDE8091F7058093F205DBCE08957D
:1004B000853421F48DE292E0ECCE089586E495E057
:1004C000E8CE089588E392E0E4DEAADE8091F705A5
:1004D0008336D1F038F4813659F080F48B3109F449
:1004E00033C02AC08536E1F0A8F08636F9F024C082
:1004F00081EA92E0CEDE10E007E622C08EEB92E0C9
:10050000C8DE10E00FEC1CC08BED92E0C2DE11E003
:100510000FE916C088EF92E0BCDE13E00FE310C0D5
:1005200085E193E0B6DE16E00FE70AC081E393E0D1
:10053000B0DE1CE00FEF04C08DE493E0AADEC2CF72
:100540001093C5000093C400089580E693E0A1DEF7
:1005500067DE8091F705863309F130F48B3109F4B9
:1005600065C0853349F0F1CF883309F43CC040F1D0
:10057000893309F44AC0E9CF81EC93E08ADEE1ECEB
:10058000F0E0808191818B7F91838083E2ECF0E0C9
:10059000808191818B7F9183808308958CEC93E09F
:1005A00078DEE1ECF0E0808191818B7F9183808324
:1005B000E2ECF0E0808191818460918380830895F2
:1005C00087ED93E066DEE1ECF0E0808191818B7F46
:1005D00091838083E2ECF0E0808191818D7F846063
:1005E00091838083089582EE93E053DEE1ECF0E0A6
:1005F000808191818B7F91838083E2ECF0E0808128
:10060000918186609183808308958DEE93E041DE31
:10061000E1ECF0E080819181846091838083E2EC61
:10062000F0E080819181866091838083089588EFD6
:1006300093E02FDEF5DD8091F705843649F018F45C
:100640008B3119F11EC0853659F08F3691F019C0E3
:10065000E2ECF0E0808191818F7C9183808308952A
:10066000E2ECF0E0808191818F7E806291838083D3
:100670000895E2ECF0E08081918180639183808332
:1006800008958DE493E005DED2CF089587E594E0E8
:1006900000DE80E894E0FDDDC3DD8091F705813365
:1006A00049F018F48B3179F00BC0823329F0833391
:1006B00029F006C007CF089548CF0895B8CF089510
:1006C0008AEC94E0E6CD08958FE695E0E2DD1092A5
:1006D000F705A6DDE091F705EE23D9F38E2F90E024
:1006E000FC01E154F109E533F10558F4EC5CFF4FEE
:1006F00078C2FDCD089513CE0895BBCE0895C6CF20
:10070000089586E495E0C5DDEECD08952BDDE1DDAD
:10071000DBDFFECF5058BB27AA270ED04DC13ED1FC
:1007200030F043D120F031F49F3F11F41EF433C177
:100730000EF4E095E7FB29C1E92F4FD180F3BA17FA
:10074000620773078407950718F071F49EF567C177
:100750000EF4E0950B2EBA2FA02D0B01B9019001DC
:100760000C01CA01A0011124FF27591B99F0593F20
:1007700050F4503E68F11A16F040A22F232F342F68
:100780004427585FF3CF469537952795A795F040B6
:100790005395C9F77EF41F16BA0B620B730B840BCB
:1007A000BAF09150A1F0FF0FBB1F661F771F881F83
:1007B000C2F70EC0BA0F621F731F841F48F48795DB
:1007C00077956795B795F7959E3F08F0B3CF9395CA
:1007D000880F08F09927EE0F9795879508950CD00C
:1007E000EBC0E3D040F0DAD030F021F45F3F19F0F5
:1007F000CCC0511115C1CFC0F0D098F39923C9F3E3
:100800005523B1F3951B550BBB27AA276217730716
:10081000840738F09F5F5F4F220F331F441FAA1FCA
:10082000A9F333D00E2E3AF0E0E830D0915050408A
:10083000E695001CCAF729D0FE2F27D0660F771F38
:10084000881FBB1F261737074807AB07B0E809F01A
:10085000BB0B802DBF01FF2793585F4F2AF09E3FAF
:10086000510568F092C0DCC05F3FECF3983EDCF3CA
:10087000869577956795B795F7959F5FC9F7880F28
:10088000911D9695879597F90895E1E0660F771F7A
:10089000881FBB1F621773078407BA0720F0621B0B
:1008A000730B840BBA0BEE1F88F7E095089504D004
:1008B0006894B111B5C0089598D088F09F5790F012
:1008C000B92F9927B751A0F0D1F0660F771F881F75
:1008D000991F1AF0BA95C9F712C0B13081F09FD0B4
:1008E000B1E008959CC0672F782F8827B85F39F052
:1008F000B93FCCF3869577956795B395D9F73EF4D4
:1009000090958095709561957F4F8F4F9F4F08957B
:10091000E89409C097FB3EF4909580957095619599
:100920007F4F8F4F9F4F9923A9F0F92F96E9BB274F
:100930009395F695879577956795B795F111F8CFCB
:10094000FAF4BB0F11F460FF1BC06F5F7F4F8F4F36
:100950009F4F16C0882311F096E911C0772321F02C
:100960009EE8872F762F05C0662371F096E8862FC4
:1009700070E060E02AF09A95660F771F881FDAF71B
:10098000880F9695879597F9089597F99F6780E85E
:1009900070E060E008959FEF80EC089500240A94D1
:1009A0001616170618060906089500240A9412164A
:1009B0001306140605060895092E0394000C11F47D
:1009C000882352F0BB0F40F4BF2B11F460FF04C02A
:1009D0006F5F7F4F8F4F9F4F089557FD9058440F83
:1009E000551F59F05F3F71F04795880F97FB991F8E
:1009F00061F09F3F79F0879508951216130614064B
:100A0000551FF2CF4695F1DF08C0161617061806D7
:100A1000991FF1CF86957105610508940895E894B2
:100A2000BB2766277727CB0197F908950EF0A6C05C
:100A3000B2CF6894AACFD9DFC8F39923D1F3C6F314
:100A4000DF93CF931F930F93FF92C92FDD27882346
:100A50002AF02197660F771F881FDAF720E030E031
:100A600040E85FEB9FE3883920F0803E30F021962C
:100A70008F7751DEE2EDF0E003C04DDEEFEFF0E006
:100A80008BD08B01BE01EC01FB2E6F577109759560
:100A9000771F880B990B3EDF28E132E741E35FE3E4
:100AA00016D0AF2D9801AE01FF900F911F91CF91FD
:100AB000DF9142DE81CF0BD07FCF70DF28F075DF72
:100AC00018F0952309F061CF66CF1124A9CF85DFF7
:100AD000A0F3959FD1F3950F50E0551F629FF00151
:100AE000729FBB27F00DB11D639FAA27F00DB11DAA
:100AF000AA1F649F6627B00DA11D661F829F222733
:100B0000B00DA11D621F739FB00DA11D621F839FB9
:100B1000A00D611D221F749F3327A00D611D231F8F
:100B2000849F600D211D822F762F6A2F11249F57DD
:100B300050408AF0E1F088234AF0EE0FFF1FBB1F00
:100B4000661F771F881F91505040A9F79E3F51059F
:100B500070F01BCF65CF5F3FECF3983EDCF38695DA
:100B600077956795B795F795E7959F5FC1F7FE2B4A
:100B7000880F911D9695879597F908959F3F31F0BD
:100B8000915020F4879577956795B795880F911DBB
:100B90009695879597F90895DF93CF931F930F93B9
:100BA000FF92EF92DF927B018C01689405C0DA2EF0
:100BB000EF018DDFFE01E894A591259135914591D6
:100BC0005591AEF3EF01B8DDFE019701A801DA946B
:100BD00079F7DF90EF90FF900F911F91CF91DF9108
:100BE0000895EE0FFF1F0590F491E02D0994BB27A7
:100BF0004A3031F4992322F4BDE2909581959F4FBC
:100C000001C0BB27FB015527AA27880F991FAA1FE0
:100C1000A41710F0A41B83955051B9F7A05DAA3317
:100C200008F0A95DA193009779F7B111B1931192E2
:100C3000CB0100C0DC01FC01672F71917723E1F744
:100C4000329704C07C916D9370836291AE17BF0799
:080C5000C8F30895F894FFCFEA
:100C58005465616D206E616D6520697320736372E0
:100C68006F6C6C696E672E001B5B324A001B5B3031
:100C78003B3048000A456E746572207468652068C8
:100C88006967682D626974206F66207468652045FD
:100C98004550524F4D20416464726573733A200089
:100CA800456E74657220746865206C6F772D626973
:100CB80074206F662074686520454550524F4D205A
:100CC800416464726573733A2000576F756C6420D1
:100CD800796F75206C696B6520746F2028522965BF
:100CE80061642C20285729726974652C206F722042
:100CF8002845297869743A2000596F752073656C06
:100D0800656374656420746F20726561642066721F
:100D18006F6D20454550524F4D2E0A00596F752072
:100D280073656C656374656420746F207772697489
:100D38006520746F20454550524F4D2E0A00456E70
:100D48007465722074686520636F6E74656E7420B4
:100D5800746F2062652073746F72656420617420FB
:100D680074686520454550524F4D20416464726552
:100D780073732070726F766964653A2000546861F5
:100D88006E6B20796F752E000D0A53656C65637460
:100D98002066726F6D2074686520666F6C6C6F7763
:100DA800696E6720426175642052617465730D0A2B
:100DB80028612920393630302028622920343830FB
:100DC800302028632920323430302028642920310B
:100DD80032303020286529203630302028662920F6
:100DE800333030202845534329204D656E750D0A50
:100DF800000D0A4261756420726174652073656C28
:100E080065637465643A20393630300D0A000D0A7E
:100E18004261756420726174652073656C656374E2
:100E280065643A20343830300D0A000D0A42617585
:100E38006420726174652073656C65637465643AD7
:100E480020323430300D0A000D0A42617564207278
:100E58006174652073656C65637465643A2031322A
:100E680030300D0A000D0A426175642072617465A4
:100E78002073656C65637465643A203630300D0AFA
:100E8800000D0A4261756420726174652073656C97
:100E980065637465643A203330300D0A000D0A49E1
:100EA8006E76616C6964206F7074696F6E0D0A00EC
:100EB8000D0A53656C6563742066726F6D207468E3
:100EC8006520666F6C6C6F77696E67206269742045
:100ED80073697A65730D0A2835292062697473204D
:100EE800283629206269747320283729206269749A
:100EF80073202838292062697473202839292062D0
:100F0800697473202845534329204D656E750D0A71
:100F1800000D0A3520626974730D0A000D0A362027
:100F2800626974730D0A000D0A3720626974730DC3
:100F38000A000D0A3820626974730D0A000D0A3917
:100F480020626974730D0A000D0A53656C65637439
:100F5800206F6E65206F662074686520666F6C6C04
:100F68006F77696E6720706172697479206D6F643C
:100F780065730D0A284429697361626C65642028C9
:100F8800452976656E2050617269747920284F2949
:100F9800646420506172697479202845534329207C
:100FA8004D656E750D0A000D0A53656C65637420F6
:100FB8007768617420796F7520776F756C64206C21
:100FC800696B6520746F206368616E67650D0A0040
:100FD8000D0A283129426175642052617465202800
:100FE800322923206F66204461746120626974731A
:100FF80020283329506172697479202834292320E4
:101008006F662053746F702062697473202845538B
:101018004329204D656E750D0A00496E76616C692D
:1010280064204F7074696F6E000D0A53656C6563B8
:1010380074206F6E65206F662074686520666F6C1B
:101048006C6F77696E67206E756D626572206F666A
:101058002073746F7020626974730D0A2831292017
:1010680062697420283229206269747320284553E4
:101078004329204D656E750D0A00466F757220690B
:101088007320426574746572205468616E204669E5
:101098007665002046000D0A496E76616C69642009
:1010A800436F6D6D616E6420547279204167616988
:1010B8006E2E2E2E000D0A52656164793A20000DBD
:1010C8000A4D656E753A20284C2943442C20284146
:1010D8002943442C202845294550524F4D2C20287F
:1010E8005529534152540D0A000D0A62792045755D
:1010F80067656E6520526F636B657920436F707901
:10110800726967687420323031382C20416C6C2049
:1011180052696768747320526573657276656400F6
:101128000D0A4543452D3431322041544D656761E0
:0E113800333238502054696E79204F53000036
:00000001FF
