:020000020000FC
:080000000C9400010C943D0179
:100200000E9404010C940201009000000092000181
:10021000009201010E940D010895EDE0F3E00E94BB
:1002200012010895E03011F40C941401F03039F407
:10023000EEEEE0930001E09301010C941D01EF1735
:1002400029F4E1E0E09300010C9424013AF4EFEF8B
:10025000E0930001E09301010C942C010E94310114
:100260000895009000000394EF1BEAF70A94EF0F43
:0E02700000920001E093010108950C943D01FD
:00000001FF
