S016000070726F6A656374335F70617274312E737265639D
S113000060C0000079C0000077C0000075C0000027
S113001073C0000071C000006FC000006DC000001C
S11300206BC0000069C0000067C0000065C000002C
S113003063C0000061C000005FC000005DC000003C
S11300405BC0000059C0000057C0000055C000004C
S113005053C0000051C000004FC000004DC000005C
S11300604BC0000049C0000008000000BE922449B3
S1130070123EABAAAA2ABECDCCCC4C3E00000080D6
S1130080BEABAAAAAA3E00000000BF000000803F49
S11300900000000000084178D3BB4387D1133D1909
S11300A00E3CC3BD4282AD2B3E68EC8276BED98F36
S11300B0E1A93E4C80EFFFBE01C4FF7F3F0000007A
S11300C0000011241FBECFEFD8E0DEBFCDBF12E089
S11300D0A0E0B1E0ECEDF9E002C005900D92AE3F76
S11300E0B107D9F723E0AEEFB2E001C01D92A83109
S11300F0B207E1F7D3D170C483CF07E004B900E0BD
S113010005B901B910E007E61093C5000093C400D7
S113011008E10093C10006E00093C20007E80093E1
S11301207A0000E400937C0000E000937B000EEF73
S113013000937E000FEF00937F00089531D00FEFFE
S11301400AB9009103030BB904E005B904D000E037
S113015005B901D01FC00AEF1FEF1A95F1F70A95F0
S1130160D9F708951DD00FEF0AB9009103030BB915
S113017006E005B9F0DF00E005B9EDDF0BC0089536
S11301800FD000E00AB945B80BB10093030305B8DA
S113019001C0089502E00AB908E10093C10008957E
S11301A000E00093C10008950091C00007FF089586
S11301B00091C600F9CF0091C00007FFFCCF009169
S11301C0C6000093070308951091C00015FFFCCFEB
S11301D0009107030093C600089507EC00937A008A
S11301E000917A0006FDFCCF00917800009315037E
S11301F000917900009304030895F999FECF2091AA
S11302000503109106030091020322BD11BD00BD38
S1130210FA9AF99A0895F999FECF2091050310915D
S1130220060300E022BD11BDF89A00B50093070350
S11302300895CF93DF93EC019881992339F02196A7
S113024090930703C1DF99919111FACFDF91CF9178
S11302500895CF93DF93EC019881992339F0219687
S1130260909303037FDF99919111FACFDF91CF919E
S1130270089581EE92E0DDDF8AEA92E0DADF8FE72B
S113028092E0D7CF089589E892E0D3CF089584E32C
S11302908093030353DF88E0809303034FDF82E0FE
S11302A0809303034BDF86E08093030347DF8FE0F3
S11302B08093030343DF8BE392E0CBCF08958F92C7
S11302C09F92AF92BF92CF92DF92EF92FF921092E1
S11302D0070383DF60910403062E000C770B762F4F
S11302E0662780911503680F711D87FD7A957093B9
S11302F0170360931603072E000C880B990BD2D1B9
S11303006B017C0120E030E44CE156E49CD24B01CB
S11303105C01A701960160E070E080E894E4C2D03B
S11303209B01AC01C501B40122D160930C0370930D
S11303300D0380930E0390930F0320E030E44CE10F
S113034056E415D140D223E333E145E953E47BD2AB
S113035020E030EE46E755E4A6D09B01AC016EECFC
S11303607EEE83E899E403D123E333E948E853E4D8
S113037099D020E030E040E151E465D220E030E063
S113038040EA50E4F4D020E030E040E052E48BD086
S11303906093FE027093FF02809300039093010325
S11303A04ED1DC01CB014AE068E073E0E2D288E19F
S11303B091E03FDF88E093E03CDF84E592E039DFC1
S11303C08BE191E036DF80E291E033DF0091C600FB
S11303D00093070380910703853609F07ACFFF90D5
S11303E0EF90DF90CF90BF90AF909F908F90089543
S11303F087E291E01EDFDFDE80910703809305032F
S113040083E591E016DFD7DE80910703809306032E
S113041008958DE791E00DDFCEDE809107038F7D97
S1130420823531F48CEA91E004DFE2DFF4CE089502
S1130430873571F48FEC91E0FCDEDADF81EF91E037
S1130440F8DEB9DE8091070380930203D6CE0895C7
S1130450853421F480E392E0ECCE089580E692E0C6
S1130460E8CE089589E892E0E4DE10920703A3DE63
S1130470809107038823D9F3853649F08C3619F027
S1130480813639F402C003CF089519CF0895C1CF3E
S1130490089580E692E0CDDEF6CE08952EDEE9DE04
S11304A0E1DFFECF5058BB27AA270ED04DC13ED165
S11304B030F043D120F031F49F3F11F41EF433C1E6
S11304C00EF4E095E7FB29C1E92F4FD180F3BA1769
S11304D0620773078407950718F071F49EF567C1E6
S11304E00EF4E0950B2EBA2FA02D0B01B90190014B
S11304F00C01CA01A0011124FF27591B99F0593F8F
S113050050F4503E68F11A16F040A22F232F342FD6
S11305104427585FF3CF469537952795A795F04024
S11305205395C9F77EF41F16BA0B620B730B840B39
S1130530BAF09150A1F0FF0FBB1F661F771F881FF1
S1130540C2F70EC0BA0F621F731F841F48F4879549
S113055077956795B795F7959E3F08F0B3CF939538
S1130560880F08F09927EE0F9795879508950CD07A
S1130570EBC0E3D040F0DAD030F021F45F3F19F063
S1130580CCC0511115C1CFC0F0D098F39923C9F351
S11305905523B1F3951B550BBB27AA276217730785
S11305A0840738F09F5F5F4F220F331F441FAA1F39
S11305B0A9F333D00E2E3AF0E0E830D091505040F9
S11305C0E695001CCAF729D0FE2F27D0660F771FA7
S11305D0881FBB1F261737074807AB07B0E809F089
S11305E0BB0B802DBF01FF2793585F4F2AF09E3F1E
S11305F0510568F092C0DCC05F3FECF3983EDCF339
S1130600869577956795B795F7959F5FC9F7880F96
S1130610911D9695879597F90895E1E0660F771FE8
S1130620881FBB1F621773078407BA0720F0621B79
S1130630730B840BBA0BEE1F88F7E095089504D072
S11306406894B111B5C0089598D088F09F5790F080
S1130650B92F9927B751A0F0D1F0660F771F881FE3
S1130660991F1AF0BA95C9F712C0B13081F09FD022
S1130670B1E008959CC0672F782F8827B85F39F0C0
S1130680B93FCCF3869577956795B395D9F73EF442
S113069090958095709561957F4F8F4F9F4F0895EA
S11306A0E89409C097FB3EF4909580957095619508
S11306B07F4F8F4F9F4F9923A9F0F92F96E9BB27BE
S11306C09395F695879577956795B795F111F8CF3A
S11306D0FAF4BB0F11F460FF1BC06F5F7F4F8F4FA5
S11306E09F4F16C0882311F096E911C0772321F09B
S11306F09EE8872F762F05C0662371F096E8862F33
S113070070E060E02AF09A95660F771F881FDAF789
S1130710880F9695879597F9089597F99F6780E8CC
S113072070E060E008959FEF80EC089500240A943F
S11307301616170618060906089500240A941216B8
S11307401306140605060895092E0394000C11F4EB
S1130750882352F0BB0F40F4BF2B11F460FF04C098
S11307606F5F7F4F8F4F9F4F089557FD9058440FF1
S1130770551F59F05F3F71F04795880F97FB991FFC
S113078061F09F3F79F087950895121613061406B9
S1130790551FF2CF4695F1DF08C016161706180646
S11307A0991FF1CF86957105610508940895E89421
S11307B0BB2766277727CB0197F908950EF0A6C0CB
S11307C0B2CF6894AACFD9DFC8F39923D1F3C6F383
S11307D0DF93CF931F930F93FF92C92FDD278823B5
S11307E02AF02197660F771F881FDAF720E030E0A0
S11307F040E85FEB9FE3883920F0803E30F021969B
S11308008F7751DEE8E6F0E003C04DDEE5E9F0E085
S11308108BD08B01BE01EC01FB2E6F5771097595CE
S1130820771F880B990B3EDF28E132E741E35FE352
S113083016D0AF2D9801AE01FF900F911F91CF916B
S1130840DF9142DE81CF0BD07FCF70DF28F075DFE0
S113085018F0952309F061CF66CF1124A9CF85DF65
S1130860A0F3959FD1F3950F50E0551F629FF001BF
S1130870729FBB27F00DB11D639FAA27F00DB11D18
S1130880AA1F649F6627B00DA11D661F829F2227A1
S1130890B00DA11D621F739FB00DA11D621F839F28
S11308A0A00D611D221F749F3327A00D611D231FFE
S11308B0849F600D211D822F762F6A2F11249F574C
S11308C050408AF0E1F088234AF0EE0FFF1FBB1F6F
S11308D0661F771F881F91505040A9F79E3F51050E
S11308E070F01BCF65CF5F3FECF3983EDCF3869549
S11308F077956795B795F795E7959F5FC1F7FE2BB9
S1130900880F911D9695879597F908959F3F31F02B
S1130910915020F4879577956795B795880F911D29
S11309209695879597F90895DF93CF931F930F9327
S1130930FF92EF92DF927B018C01689405C0DA2E5E
S1130940EF018DDFFE01E894A59125913591459144
S11309505591AEF3EF01B8DDFE019701A801DA94D9
S113096079F7DF90EF90FF900F911F91CF91DF9176
S11309700895BB274A3031F4992322F4BDE29095BF
S113098081959F4F01C0BB27FB015527AA27880FDC
S1130990991FAA1FA41710F0A41B83955051B9F7EF
S11309A0A05DAA3308F0A95DA193009779F7B1116E
S11309B0B1931192CB0100C0DC01FC01672F71914E
S11309C07723E1F7329704C07C916D937083629131
S10F09D0AE17BF07C8F30895F894FFCFDA
S11309DC5465616D206E616D65206973207363725B
S11309EC6F6C6C696E672E000D0A001B5B324A003B
S11309FC1B5B303B3048000A456E7465722074688A
S1130A0C6520686967682D626974206F6620746854
S1130A1C6520454550524F4D204164647265737393
S1130A2C3A2000456E74657220746865206C6F778B
S1130A3C2D626974206F6620746865204545505298
S1130A4C4F4D20416464726573733A2000576F757F
S1130A5C6C6420796F75206C696B6520746F202829
S1130A6C52296561642C20285729726974652C20DD
S1130A7C6F72202845297869743A2000596F7520C3
S1130A8C73656C656374656420746F20726561644E
S1130A9C2066726F6D20454550524F4D2E0A0059F9
S1130AAC6F752073656C656374656420746F20774F
S1130ABC7269746520746F20454550524F4D2E0A4F
S1130ACC00456E7465722074686520636F6E74657E
S1130ADC6E7420746F2062652073746F7265642069
S1130AEC61742074686520454550524F4D20416413
S1130AFC64726573732070726F766964653A200052
S1130B0C5468616E6B20796F752E00466F75722078
S1130B1C697320426574746572205468616E204652
S1130B2C697665002046616872656E686569740053
S1130B3C0D0A496E76616C696420436F6D6D616E4C
S1130B4C642054727920416761696E2E2E2E000D3B
S1130B5C0A52656164793A20000D0A4D656E753A46
S1130B6C20284C2943442C2028412943442C202858
S1130B7C45294550524F4D0D0A000D0A6279204506
S1130B8C7567656E6520526F636B657920436F7072
S1130B9C79726967687420323031382C20416C6C5E
S1130BAC2052696768747320526573657276656444
S1130BBC000D0A4543452D3431322041544D6567AF
S1110BCC61333238502054696E79204F530043
S9030000FC
