:1000000033C000004CC000004AC0000048C00000DF
:1000100046C0000044C0000042C0000040C00000D4
:100020003EC000003CC000003AC0000038C00000E4
:1000300036C0000034C0000032C0000030C00000F4
:100040002EC000002CC000002AC0000028C0000004
:1000500026C0000024C0000022C0000020C0000014
:100060001EC000001CC0000011241FBECFEFD8E04E
:10007000DEBFCDBF11E0A0E0B1E0EAEBF3E002C0EB
:1000800005900D92A03DB107D9F721E0A0EDB1E0B8
:1000900001C01D92AB3DB207E1F762D18CC1B0CF78
:1000A00007E004B900E005B901B910E007E61093D4
:1000B000C5000093C40008E10093C10006E000936E
:1000C000C20007E800937A0000E400937C0000E09F
:1000D00000937B000EEF00937E000FEF00937F00F4
:1000E000089531D00FEF0AB90091D0010BB904E0A7
:1000F00005B904D000E005B901D01FC00AEF1FEF19
:100100001A95F1F70A95D9F708951DD00FEF0AB99E
:100110000091D0010BB906E005B9F0DF00E005B9A8
:10012000EDDF0BC008950FD000E00AB945B80BB160
:100130000093D00105B801C0089502E00AB908E1B2
:100140000093C100089500E00093C100089500915C
:10015000C00007FF08950091C600F9CF0091C000CC
:1001600007FFFCCF0091C6000093D20108951091C3
:10017000C00015FFFCCF0091D2010093C600089586
:1001800007EC00937A0000917A0006FDFCCF009105
:1001900078000093D801009179000093D10108956F
:1001A000F999FECF20E015E006E422BD11BD00BDA7
:1001B000FA9AF99A0895F999FECF20E015E000E047
:1001C00022BD11BDF89A00B50093D2010895CF93D6
:1001D000DF93EC019881992339F021969093D20115
:1001E000C6DF99919111FACFDF91CF910895CF9306
:1001F000DF93EC019881992339F021969093D001F7
:1002000084DF99919111FACFDF91CF91089582EB1C
:1002100091E0DDDF8BE791E0DADF80E591E0D7CF99
:1002200008958AE591E0D3CF089584E38093D001C7
:1002300058DF88E08093D00154DF82E08093D001C2
:1002400050DF86E08093D0014CDF8FE08093D001B7
:1002500048DF80E091E0CBCF0895CF93DF93C3EDEB
:10026000D1E08EE2898380E28B831C8289DF20913A
:10027000D101022E000C330B322F22278091D8019E
:10028000280F311D87FD3A95C901880F991F220F4C
:10029000331F220F331F220F331F820F931FEEEFE6
:1002A000F7E0BF0161D0262F30E3360F3883AC0171
:1002B000440F551F880F991F880F991F880F991F8A
:1002C000840F951FBF0150D030E3360F3A839093CF
:1002D000DA018093D9018F3F93401CF06F5C6093EB
:1002E000D5018091D5018A3331F4E3EDF1E080E36B
:1002F00082832F5C208383ED91E069DF8AE291E0C5
:1003000066DFDF91CF9108958EE091E060DF87E2B4
:1003100091E05DDF45DF87E291E059DF4CDF27DFC9
:1003200087E291E054CF08958AE591E050DF109282
:10033000D20114DF8091D2018823D9F3853649F0A8
:100340008C3619F0813639F402C06FCF089585CF0D
:100350000895DACF089581E391E039DF62CF0895FF
:100360009FDE55DFE1DFFECF97FB072E16F40094EA
:1003700006D077FD08D00BD007FC05D03EF4909551
:1003800081959F4F0895709561957F4F0895AA1BA1
:10039000BB1B51E107C0AA1FBB1FA617B70710F070
:1003A000A61BB70B881F991F5A95A9F780959095A2
:0A03B000BC01CD010895F894FFCFC1
:1003BA0048656C6C6F2045434534313221000D0A83
:1003CA00454550524F4D20577269746520616E64DD
:1003DA0020526561642E000D0A00566F6C74730D0D
:1003EA00000D0A496E76616C696420436F6D6D6118
:1003FA006E642054727920416761696E2E2E2E0038
:10040A000D0A52656164793A20000D0A4D656E75D0
:10041A003A20284C2943442C2028412943442C20A3
:10042A002845294550524F4D0D0A000D0A62792080
:10043A00457567656E6520526F636B657920436FFA
:10044A007079726967687420323031382C20416CB7
:10045A006C20526967687473205265736572766599
:10046A0064000D0A4543452D3431322041544D650F
:10047A006761333238502054696E79204F53000037
:00000001FF
