:020000020000FC
:100000000C9434000C945C000C945E000C94600022
:100010000C9462000C9464000C9466000C946800CC
:100020000C946A000C946C000C946E000C9470009C
:100030000C948F000C9491000C9493000C949500F8
:100040000C9497000C9499000C949B000C949D00C8
:100050000C949F000C94A1000C94A3000C94A50098
:100060000C94A7000C94A900F8940FEF04B900ECCD
:10007000009380000BE00093810000E80093820071
:1000800003E80093800020E010E000918400100F4E
:1000900000918500201F209389001093880030E094
:1000A00002E000936F0006BB01E030E041E05FEF4B
:1000B00060E073E07894FFCF000018950000189579
:1000C000000018950000189500001895000018957C
:1000D000000018950000189500001895000018956C
:1000E00000C02093890010938800631721F06417E3
:1000F00039F0189530E0100F231F271731F01895AD
:10010000101B230B231731F01895151709F01895BC
:1001100061E01895131709F0189560E01895000034
:10012000189500001895000018950000189500001B
:10013000189500001895000018950000189500000B
:1001400018950000189500001895000018950000FB
:060150001895000018954F
:00000001FF
